{
  "contractName": "Voting",
  "abi": [
    {
      "anonymous": false,
      "inputs": [
        {
          "indexed": true,
          "internalType": "address",
          "name": "previousOwner",
          "type": "address"
        },
        {
          "indexed": true,
          "internalType": "address",
          "name": "newOwner",
          "type": "address"
        }
      ],
      "name": "OwnershipTransferred",
      "type": "event"
    },
    {
      "anonymous": false,
      "inputs": [
        {
          "indexed": false,
          "internalType": "uint256",
          "name": "timestamp",
          "type": "uint256"
        },
        {
          "indexed": false,
          "internalType": "uint256",
          "name": "proposalId",
          "type": "uint256"
        }
      ],
      "name": "ProposalRegistered",
      "type": "event"
    },
    {
      "anonymous": false,
      "inputs": [
        {
          "indexed": false,
          "internalType": "uint256",
          "name": "timestamp",
          "type": "uint256"
        }
      ],
      "name": "Reset",
      "type": "event"
    },
    {
      "anonymous": false,
      "inputs": [
        {
          "indexed": false,
          "internalType": "uint256",
          "name": "timestamp",
          "type": "uint256"
        },
        {
          "indexed": false,
          "internalType": "address",
          "name": "voter",
          "type": "address"
        },
        {
          "indexed": false,
          "internalType": "uint256",
          "name": "proposalId",
          "type": "uint256"
        }
      ],
      "name": "Voted",
      "type": "event"
    },
    {
      "anonymous": false,
      "inputs": [
        {
          "indexed": false,
          "internalType": "uint256",
          "name": "timestamp",
          "type": "uint256"
        },
        {
          "indexed": false,
          "internalType": "address",
          "name": "voterAddress",
          "type": "address"
        }
      ],
      "name": "VoterRegistered",
      "type": "event"
    },
    {
      "anonymous": false,
      "inputs": [
        {
          "indexed": false,
          "internalType": "uint256",
          "name": "timestamp",
          "type": "uint256"
        },
        {
          "indexed": false,
          "internalType": "enum Voting.WorkflowStatus",
          "name": "previousStatus",
          "type": "uint8"
        },
        {
          "indexed": false,
          "internalType": "enum Voting.WorkflowStatus",
          "name": "newStatus",
          "type": "uint8"
        }
      ],
      "name": "WorkflowStatusChange",
      "type": "event"
    },
    {
      "inputs": [],
      "name": "owner",
      "outputs": [
        {
          "internalType": "address",
          "name": "",
          "type": "address"
        }
      ],
      "stateMutability": "view",
      "type": "function",
      "constant": true
    },
    {
      "inputs": [],
      "name": "renounceOwnership",
      "outputs": [],
      "stateMutability": "nonpayable",
      "type": "function"
    },
    {
      "inputs": [
        {
          "internalType": "address",
          "name": "newOwner",
          "type": "address"
        }
      ],
      "name": "transferOwnership",
      "outputs": [],
      "stateMutability": "nonpayable",
      "type": "function"
    },
    {
      "inputs": [],
      "name": "winningProposalID",
      "outputs": [
        {
          "internalType": "uint256",
          "name": "",
          "type": "uint256"
        }
      ],
      "stateMutability": "view",
      "type": "function",
      "constant": true
    },
    {
      "inputs": [],
      "name": "workflowStatus",
      "outputs": [
        {
          "internalType": "enum Voting.WorkflowStatus",
          "name": "",
          "type": "uint8"
        }
      ],
      "stateMutability": "view",
      "type": "function",
      "constant": true
    },
    {
      "inputs": [
        {
          "internalType": "address",
          "name": "_addr",
          "type": "address"
        }
      ],
      "name": "getVoter",
      "outputs": [
        {
          "components": [
            {
              "internalType": "bool",
              "name": "isRegistered",
              "type": "bool"
            },
            {
              "internalType": "bool",
              "name": "hasVoted",
              "type": "bool"
            },
            {
              "internalType": "uint256",
              "name": "votedProposalId",
              "type": "uint256"
            }
          ],
          "internalType": "struct Voting.Voter",
          "name": "",
          "type": "tuple"
        }
      ],
      "stateMutability": "view",
      "type": "function",
      "constant": true
    },
    {
      "inputs": [
        {
          "internalType": "uint256",
          "name": "_id",
          "type": "uint256"
        }
      ],
      "name": "getOneProposal",
      "outputs": [
        {
          "components": [
            {
              "internalType": "string",
              "name": "description",
              "type": "string"
            },
            {
              "internalType": "uint256",
              "name": "voteCount",
              "type": "uint256"
            }
          ],
          "internalType": "struct Voting.Proposal",
          "name": "",
          "type": "tuple"
        }
      ],
      "stateMutability": "view",
      "type": "function",
      "constant": true
    },
    {
      "inputs": [
        {
          "internalType": "address",
          "name": "_addr",
          "type": "address"
        }
      ],
      "name": "addVoter",
      "outputs": [],
      "stateMutability": "nonpayable",
      "type": "function"
    },
    {
      "inputs": [
        {
          "internalType": "string",
          "name": "_desc",
          "type": "string"
        }
      ],
      "name": "addProposal",
      "outputs": [],
      "stateMutability": "nonpayable",
      "type": "function"
    },
    {
      "inputs": [
        {
          "internalType": "uint256",
          "name": "_id",
          "type": "uint256"
        }
      ],
      "name": "setVote",
      "outputs": [],
      "stateMutability": "nonpayable",
      "type": "function"
    },
    {
      "inputs": [],
      "name": "startProposalsRegistering",
      "outputs": [],
      "stateMutability": "nonpayable",
      "type": "function"
    },
    {
      "inputs": [],
      "name": "endProposalsRegistering",
      "outputs": [],
      "stateMutability": "nonpayable",
      "type": "function"
    },
    {
      "inputs": [],
      "name": "startVotingSession",
      "outputs": [],
      "stateMutability": "nonpayable",
      "type": "function"
    },
    {
      "inputs": [],
      "name": "endVotingSession",
      "outputs": [],
      "stateMutability": "nonpayable",
      "type": "function"
    },
    {
      "inputs": [],
      "name": "tallyVotes",
      "outputs": [],
      "stateMutability": "nonpayable",
      "type": "function"
    },
    {
      "inputs": [],
      "name": "reset",
      "outputs": [],
      "stateMutability": "nonpayable",
      "type": "function"
    }
  ],
  "bytecode": "0x60806040523480156200001157600080fd5b5062000032620000266200003860201b60201c565b6200004060201b60201c565b62000104565b600033905090565b60008060009054906101000a900473ffffffffffffffffffffffffffffffffffffffff169050816000806101000a81548173ffffffffffffffffffffffffffffffffffffffff021916908373ffffffffffffffffffffffffffffffffffffffff1602179055508173ffffffffffffffffffffffffffffffffffffffff168173ffffffffffffffffffffffffffffffffffffffff167f8be0079c531659141344cd1fd0a4f28419497f9722a3daafe3b4186f6b6457e060405160405180910390a35050565b61292780620001146000396000f3fe608060405234801561001057600080fd5b50600436106101005760003560e01c8063bdc0143111610097578063d826f88f11610066578063d826f88f14610229578063ee74c67814610233578063f2fde38b1461023d578063f4ab9adf1461025957610100565b8063bdc01431146101c7578063c7038a4e146101e5578063c88af42f146101ef578063d4f50f98146101f957610100565b80638da5cb5b116100d35780638da5cb5b14610151578063a1edffa21461016f578063a2788cce1461018d578063a7bfab16146101bd57610100565b8063230796ae146101055780632fdae3c514610121578063378a21781461013d578063715018a614610147575b600080fd5b61011f600480360381019061011a91906119ef565b610275565b005b61013b60048036038101906101369190611a81565b6105ce565b005b61014561085a565b005b61014f610942565b005b610159610956565b6040516101669190611b0f565b60405180910390f35b61017761097f565b6040516101849190611ba1565b60405180910390f35b6101a760048036038101906101a291906119ef565b610992565b6040516101b49190611ca1565b60405180910390f35b6101c5610b36565b005b6101cf610c1e565b6040516101dc9190611cd2565b60405180910390f35b6101ed610c24565b005b6101f7610da8565b005b610213600480360381019061020e9190611d19565b610e8f565b6040516102209190611da3565b60405180910390f35b610231610ff4565b005b61023b61130e565b005b61025760048036038101906102529190611d19565b6113f6565b005b610273600480360381019061026e9190611d19565b611479565b005b600460003373ffffffffffffffffffffffffffffffffffffffff1673ffffffffffffffffffffffffffffffffffffffff16815260200190815260200160002060000160009054906101000a900460ff16610304576040517f08c379a00000000000000000000000000000000000000000000000000000000081526004016102fb90611e1b565b60405180910390fd5b6003600581111561031857610317611b2a565b5b600260009054906101000a900460ff16600581111561033a57610339611b2a565b5b1461037a576040517f08c379a000000000000000000000000000000000000000000000000000000000815260040161037190611ead565b60405180910390fd5b60011515600460003373ffffffffffffffffffffffffffffffffffffffff1673ffffffffffffffffffffffffffffffffffffffff16815260200190815260200160002060000160019054906101000a900460ff16151503610410576040517f08c379a000000000000000000000000000000000000000000000000000000000815260040161040790611f19565b60405180910390fd5b6003805490508110610457576040517f08c379a000000000000000000000000000000000000000000000000000000000815260040161044e90611f85565b60405180910390fd5b80600460003373ffffffffffffffffffffffffffffffffffffffff1673ffffffffffffffffffffffffffffffffffffffff168152602001908152602001600020600101819055506001600460003373ffffffffffffffffffffffffffffffffffffffff1673ffffffffffffffffffffffffffffffffffffffff16815260200190815260200160002060000160016101000a81548160ff0219169083151502179055506003818154811061050d5761050c611fa5565b5b9060005260206000209060020201600101600081548092919061052f90612003565b919050555060036001548154811061054a57610549611fa5565b5b906000526020600020906002020160010154600382815481106105705761056f611fa5565b5b906000526020600020906002020160010154111561059057806001819055505b7f1abe610cf2bf87e57dcc1181fcf5ac0934e843d8344ab9eed6e86c799f62585e4233836040516105c39392919061204b565b60405180910390a150565b600460003373ffffffffffffffffffffffffffffffffffffffff1673ffffffffffffffffffffffffffffffffffffffff16815260200190815260200160002060000160009054906101000a900460ff1661065d576040517f08c379a000000000000000000000000000000000000000000000000000000000815260040161065490611e1b565b60405180910390fd5b6001600581111561067157610670611b2a565b5b600260009054906101000a900460ff16600581111561069357610692611b2a565b5b146106d3576040517f08c379a00000000000000000000000000000000000000000000000000000000081526004016106ca906120ce565b60405180910390fd5b6040516020016106e290612114565b60405160208183030381529060405280519060200120828260405160200161070b929190612170565b6040516020818303038152906040528051906020012003610761576040517f08c379a000000000000000000000000000000000000000000000000000000000815260040161075890612206565b60405180910390fd5b610769611819565b82828080601f016020809104026020016040519081016040528093929190818152602001838380828437600081840152601f19601f820116905080830192505050505050508160000181905250600381908060018154018082558091505060019003906000526020600020906002020160009091909190915060008201518160000190805190602001906107fe929190611833565b506020820151816001015550507fca195036d7c4d40b171ad51e9c891c830a0ad9a5e114b5b075cdf791317e300c42600160038054905061083f9190612226565b60405161084d92919061225a565b60405180910390a1505050565b6108626116cf565b6004600581111561087657610875611b2a565b5b600260009054906101000a900460ff16600581111561089857610897611b2a565b5b146108d8576040517f08c379a00000000000000000000000000000000000000000000000000000000081526004016108cf906122f5565b60405180910390fd5b6005600260006101000a81548160ff021916908360058111156108fe576108fd611b2a565b5b02179055507fb067099e10826978a3867510ad1e0dcf4ca5cef8e422fd8df2fc3d679167fe8d426004600560405161093893929190612315565b60405180910390a1565b61094a6116cf565b610954600061174d565b565b60008060009054906101000a900473ffffffffffffffffffffffffffffffffffffffff16905090565b600260009054906101000a900460ff1681565b61099a611819565b3373ffffffffffffffffffffffffffffffffffffffff166109b9610956565b73ffffffffffffffffffffffffffffffffffffffff161480610a275750600460003373ffffffffffffffffffffffffffffffffffffffff1673ffffffffffffffffffffffffffffffffffffffff16815260200190815260200160002060000160009054906101000a900460ff165b610a66576040517f08c379a0000000000000000000000000000000000000000000000000000000008152600401610a5d90612398565b60405180910390fd5b60038281548110610a7a57610a79611fa5565b5b9060005260206000209060020201604051806040016040529081600082018054610aa3906123e7565b80601f0160208091040260200160405190810160405280929190818152602001828054610acf906123e7565b8015610b1c5780601f10610af157610100808354040283529160200191610b1c565b820191906000526020600020905b815481529060010190602001808311610aff57829003601f168201915b505050505081526020016001820154815250509050919050565b610b3e6116cf565b60036005811115610b5257610b51611b2a565b5b600260009054906101000a900460ff166005811115610b7457610b73611b2a565b5b14610bb4576040517f08c379a0000000000000000000000000000000000000000000000000000000008152600401610bab90611ead565b60405180910390fd5b6004600260006101000a81548160ff02191690836005811115610bda57610bd9611b2a565b5b02179055507fb067099e10826978a3867510ad1e0dcf4ca5cef8e422fd8df2fc3d679167fe8d4260036004604051610c1493929190612315565b60405180910390a1565b60015481565b610c2c6116cf565b60006005811115610c4057610c3f611b2a565b5b600260009054906101000a900460ff166005811115610c6257610c61611b2a565b5b14610ca2576040517f08c379a0000000000000000000000000000000000000000000000000000000008152600401610c999061248a565b60405180910390fd5b6001600260006101000a81548160ff02191690836005811115610cc857610cc7611b2a565b5b0217905550610cd5611819565b6040518060400160405280600781526020017f47454e4553495300000000000000000000000000000000000000000000000000815250816000018190525060038190806001815401808255809150506001900390600052602060002090600202016000909190919091506000820151816000019080519060200190610d5b929190611833565b506020820151816001015550507fb067099e10826978a3867510ad1e0dcf4ca5cef8e422fd8df2fc3d679167fe8d4260006001604051610d9d93929190612315565b60405180910390a150565b610db06116cf565b60016005811115610dc457610dc3611b2a565b5b600260009054906101000a900460ff166005811115610de657610de5611b2a565b5b14610e26576040517f08c379a0000000000000000000000000000000000000000000000000000000008152600401610e1d9061251c565b60405180910390fd5b60028060006101000a81548160ff02191690836005811115610e4b57610e4a611b2a565b5b02179055507fb067099e10826978a3867510ad1e0dcf4ca5cef8e422fd8df2fc3d679167fe8d4260016002604051610e8593929190612315565b60405180910390a1565b610e976118b9565b3373ffffffffffffffffffffffffffffffffffffffff16610eb6610956565b73ffffffffffffffffffffffffffffffffffffffff161480610f245750600460003373ffffffffffffffffffffffffffffffffffffffff1673ffffffffffffffffffffffffffffffffffffffff16815260200190815260200160002060000160009054906101000a900460ff165b610f63576040517f08c379a0000000000000000000000000000000000000000000000000000000008152600401610f5a90612398565b60405180910390fd5b600460008373ffffffffffffffffffffffffffffffffffffffff1673ffffffffffffffffffffffffffffffffffffffff1681526020019081526020016000206040518060600160405290816000820160009054906101000a900460ff161515151581526020016000820160019054906101000a900460ff161515151581526020016001820154815250509050919050565b610ffc6116cf565b60058081111561100f5761100e611b2a565b5b600260009054906101000a900460ff16600581111561103157611030611b2a565b5b14611071576040517f08c379a0000000000000000000000000000000000000000000000000000000008152600401611068906125ae565b60405180910390fd5b6000600260006101000a81548160ff0219169083600581111561109757611096611b2a565b5b0217905550600360006110aa91906118de565b6000600580549050905060005b8181101561128857600060046000600584815481106110d9576110d8611fa5565b5b9060005260206000200160009054906101000a900473ffffffffffffffffffffffffffffffffffffffff1673ffffffffffffffffffffffffffffffffffffffff1673ffffffffffffffffffffffffffffffffffffffff16815260200190815260200160002060000160006101000a81548160ff0219169083151502179055506000600460006005848154811061117257611171611fa5565b5b9060005260206000200160009054906101000a900473ffffffffffffffffffffffffffffffffffffffff1673ffffffffffffffffffffffffffffffffffffffff1673ffffffffffffffffffffffffffffffffffffffff16815260200190815260200160002060000160016101000a81548160ff0219169083151502179055506000600460006005848154811061120b5761120a611fa5565b5b9060005260206000200160009054906101000a900473ffffffffffffffffffffffffffffffffffffffff1673ffffffffffffffffffffffffffffffffffffffff1673ffffffffffffffffffffffffffffffffffffffff168152602001908152602001600020600101819055508061128190612003565b90506110b7565b50600560006112979190611902565b7fb067099e10826978a3867510ad1e0dcf4ca5cef8e422fd8df2fc3d679167fe8d42600560006040516112cc93929190612315565b60405180910390a17f01c3cbb0d62726ab09d163873ebf9aed99dd8dc08e57bc938f458132fd178cf6426040516113039190611cd2565b60405180910390a150565b6113166116cf565b6002600581111561132a57611329611b2a565b5b600260009054906101000a900460ff16600581111561134c5761134b611b2a565b5b1461138c576040517f08c379a000000000000000000000000000000000000000000000000000000000815260040161138390612640565b60405180910390fd5b6003600260006101000a81548160ff021916908360058111156113b2576113b1611b2a565b5b02179055507fb067099e10826978a3867510ad1e0dcf4ca5cef8e422fd8df2fc3d679167fe8d42600260036040516113ec93929190612315565b60405180910390a1565b6113fe6116cf565b600073ffffffffffffffffffffffffffffffffffffffff168173ffffffffffffffffffffffffffffffffffffffff160361146d576040517f08c379a0000000000000000000000000000000000000000000000000000000008152600401611464906126d2565b60405180910390fd5b6114768161174d565b50565b6114816116cf565b6065600580549050106114c9576040517f08c379a00000000000000000000000000000000000000000000000000000000081526004016114c09061273e565b60405180910390fd5b600060058111156114dd576114dc611b2a565b5b600260009054906101000a900460ff1660058111156114ff576114fe611b2a565b5b1461153f576040517f08c379a0000000000000000000000000000000000000000000000000000000008152600401611536906127d0565b60405180910390fd5b60011515600460008373ffffffffffffffffffffffffffffffffffffffff1673ffffffffffffffffffffffffffffffffffffffff16815260200190815260200160002060000160009054906101000a900460ff161515036115d5576040517f08c379a00000000000000000000000000000000000000000000000000000000081526004016115cc9061283c565b60405180910390fd5b6001600460008373ffffffffffffffffffffffffffffffffffffffff1673ffffffffffffffffffffffffffffffffffffffff16815260200190815260200160002060000160006101000a81548160ff0219169083151502179055506005819080600181540180825580915050600190039060005260206000200160009091909190916101000a81548173ffffffffffffffffffffffffffffffffffffffff021916908373ffffffffffffffffffffffffffffffffffffffff1602179055507ff45b8429c36d478f9a6d081c4811a819b98aa5b608588bed9d406405cf28247342826040516116c492919061285c565b60405180910390a150565b6116d7611811565b73ffffffffffffffffffffffffffffffffffffffff166116f5610956565b73ffffffffffffffffffffffffffffffffffffffff161461174b576040517f08c379a0000000000000000000000000000000000000000000000000000000008152600401611742906128d1565b60405180910390fd5b565b60008060009054906101000a900473ffffffffffffffffffffffffffffffffffffffff169050816000806101000a81548173ffffffffffffffffffffffffffffffffffffffff021916908373ffffffffffffffffffffffffffffffffffffffff1602179055508173ffffffffffffffffffffffffffffffffffffffff168173ffffffffffffffffffffffffffffffffffffffff167f8be0079c531659141344cd1fd0a4f28419497f9722a3daafe3b4186f6b6457e060405160405180910390a35050565b600033905090565b604051806040016040528060608152602001600081525090565b82805461183f906123e7565b90600052602060002090601f01602090048101928261186157600085556118a8565b82601f1061187a57805160ff19168380011785556118a8565b828001600101855582156118a8579182015b828111156118a757825182559160200191906001019061188c565b5b5090506118b59190611923565b5090565b6040518060600160405280600015158152602001600015158152602001600081525090565b50805460008255600202906000526020600020908101906118ff9190611940565b50565b50805460008255906000526020600020908101906119209190611923565b50565b5b8082111561193c576000816000905550600101611924565b5090565b5b8082111561196b576000808201600061195a919061196f565b600182016000905550600201611941565b5090565b50805461197b906123e7565b6000825580601f1061198d57506119ac565b601f0160209004906000526020600020908101906119ab9190611923565b5b50565b600080fd5b600080fd5b6000819050919050565b6119cc816119b9565b81146119d757600080fd5b50565b6000813590506119e9816119c3565b92915050565b600060208284031215611a0557611a046119af565b5b6000611a13848285016119da565b91505092915050565b600080fd5b600080fd5b600080fd5b60008083601f840112611a4157611a40611a1c565b5b8235905067ffffffffffffffff811115611a5e57611a5d611a21565b5b602083019150836001820283011115611a7a57611a79611a26565b5b9250929050565b60008060208385031215611a9857611a976119af565b5b600083013567ffffffffffffffff811115611ab657611ab56119b4565b5b611ac285828601611a2b565b92509250509250929050565b600073ffffffffffffffffffffffffffffffffffffffff82169050919050565b6000611af982611ace565b9050919050565b611b0981611aee565b82525050565b6000602082019050611b246000830184611b00565b92915050565b7f4e487b7100000000000000000000000000000000000000000000000000000000600052602160045260246000fd5b60068110611b6a57611b69611b2a565b5b50565b6000819050611b7b82611b59565b919050565b6000611b8b82611b6d565b9050919050565b611b9b81611b80565b82525050565b6000602082019050611bb66000830184611b92565b92915050565b600081519050919050565b600082825260208201905092915050565b60005b83811015611bf6578082015181840152602081019050611bdb565b83811115611c05576000848401525b50505050565b6000601f19601f8301169050919050565b6000611c2782611bbc565b611c318185611bc7565b9350611c41818560208601611bd8565b611c4a81611c0b565b840191505092915050565b611c5e816119b9565b82525050565b60006040830160008301518482036000860152611c818282611c1c565b9150506020830151611c966020860182611c55565b508091505092915050565b60006020820190508181036000830152611cbb8184611c64565b905092915050565b611ccc816119b9565b82525050565b6000602082019050611ce76000830184611cc3565b92915050565b611cf681611aee565b8114611d0157600080fd5b50565b600081359050611d1381611ced565b92915050565b600060208284031215611d2f57611d2e6119af565b5b6000611d3d84828501611d04565b91505092915050565b60008115159050919050565b611d5b81611d46565b82525050565b606082016000820151611d776000850182611d52565b506020820151611d8a6020850182611d52565b506040820151611d9d6040850182611c55565b50505050565b6000606082019050611db86000830184611d61565b92915050565b600082825260208201905092915050565b7f596f75277265206e6f74206120766f7465720000000000000000000000000000600082015250565b6000611e05601283611dbe565b9150611e1082611dcf565b602082019050919050565b60006020820190508181036000830152611e3481611df8565b9050919050565b7f566f74696e672073657373696f6e20686176656e74207374617274656420796560008201527f7400000000000000000000000000000000000000000000000000000000000000602082015250565b6000611e97602183611dbe565b9150611ea282611e3b565b604082019050919050565b60006020820190508181036000830152611ec681611e8a565b9050919050565b7f596f75206861766520616c726561647920766f74656400000000000000000000600082015250565b6000611f03601683611dbe565b9150611f0e82611ecd565b602082019050919050565b60006020820190508181036000830152611f3281611ef6565b9050919050565b7f50726f706f73616c206e6f7420666f756e640000000000000000000000000000600082015250565b6000611f6f601283611dbe565b9150611f7a82611f39565b602082019050919050565b60006020820190508181036000830152611f9e81611f62565b9050919050565b7f4e487b7100000000000000000000000000000000000000000000000000000000600052603260045260246000fd5b7f4e487b7100000000000000000000000000000000000000000000000000000000600052601160045260246000fd5b600061200e826119b9565b91507fffffffffffffffffffffffffffffffffffffffffffffffffffffffffffffffff82036120405761203f611fd4565b5b600182019050919050565b60006060820190506120606000830186611cc3565b61206d6020830185611b00565b61207a6040830184611cc3565b949350505050565b7f50726f706f73616c7320617265206e6f7420616c6c6f77656420796574000000600082015250565b60006120b8601d83611dbe565b91506120c382612082565b602082019050919050565b600060208201905081810360008301526120e7816120ab565b9050919050565b50565b60006120fe600083611dbe565b9150612109826120ee565b600082019050919050565b6000602082019050818103600083015261212d816120f1565b9050919050565b82818337600083830152505050565b600061214f8385611dbe565b935061215c838584612134565b61216583611c0b565b840190509392505050565b6000602082019050818103600083015261218b818486612143565b90509392505050565b7f566f7573206e6520706f7576657a20706173206e65207269656e2070726f706f60008201527f7365720000000000000000000000000000000000000000000000000000000000602082015250565b60006121f0602383611dbe565b91506121fb82612194565b604082019050919050565b6000602082019050818103600083015261221f816121e3565b9050919050565b6000612231826119b9565b915061223c836119b9565b92508282101561224f5761224e611fd4565b5b828203905092915050565b600060408201905061226f6000830185611cc3565b61227c6020830184611cc3565b9392505050565b7f43757272656e7420737461747573206973206e6f7420766f74696e672073657360008201527f73696f6e20656e64656400000000000000000000000000000000000000000000602082015250565b60006122df602a83611dbe565b91506122ea82612283565b604082019050919050565b6000602082019050818103600083015261230e816122d2565b9050919050565b600060608201905061232a6000830186611cc3565b6123376020830185611b92565b6123446040830184611b92565b949350505050565b7f596f75277265206e6f7420726567697374657265640000000000000000000000600082015250565b6000612382601583611dbe565b915061238d8261234c565b602082019050919050565b600060208201905081810360008301526123b181612375565b9050919050565b7f4e487b7100000000000000000000000000000000000000000000000000000000600052602260045260246000fd5b600060028204905060018216806123ff57607f821691505b602082108103612412576124116123b8565b5b50919050565b7f5265676973746572696e672070726f706f73616c732063616e7420626520737460008201527f6172746564206e6f770000000000000000000000000000000000000000000000602082015250565b6000612474602983611dbe565b915061247f82612418565b604082019050919050565b600060208201905081810360008301526124a381612467565b9050919050565b7f5265676973746572696e672070726f706f73616c7320686176656e742073746160008201527f7274656420796574000000000000000000000000000000000000000000000000602082015250565b6000612506602883611dbe565b9150612511826124aa565b604082019050919050565b60006020820190508181036000830152612535816124f9565b9050919050565b7f43757272656e7420737461747573206973206e6f7420766f746573207461696c60008201527f6c65640000000000000000000000000000000000000000000000000000000000602082015250565b6000612598602383611dbe565b91506125a38261253c565b604082019050919050565b600060208201905081810360008301526125c78161258b565b9050919050565b7f5265676973746572696e672070726f706f73616c73207068617365206973206e60008201527f6f742066696e6973686564000000000000000000000000000000000000000000602082015250565b600061262a602b83611dbe565b9150612635826125ce565b604082019050919050565b600060208201905081810360008301526126598161261d565b9050919050565b7f4f776e61626c653a206e6577206f776e657220697320746865207a65726f206160008201527f6464726573730000000000000000000000000000000000000000000000000000602082015250565b60006126bc602683611dbe565b91506126c782612660565b604082019050919050565b600060208201905081810360008301526126eb816126af565b9050919050565b7f4d61782031303020766f74657273000000000000000000000000000000000000600082015250565b6000612728600e83611dbe565b9150612733826126f2565b602082019050919050565b600060208201905081810360008301526127578161271b565b9050919050565b7f566f7465727320726567697374726174696f6e206973206e6f74206f70656e2060008201527f7965740000000000000000000000000000000000000000000000000000000000602082015250565b60006127ba602383611dbe565b91506127c58261275e565b604082019050919050565b600060208201905081810360008301526127e9816127ad565b9050919050565b7f416c726561647920726567697374657265640000000000000000000000000000600082015250565b6000612826601283611dbe565b9150612831826127f0565b602082019050919050565b6000602082019050818103600083015261285581612819565b9050919050565b60006040820190506128716000830185611cc3565b61287e6020830184611b00565b9392505050565b7f4f776e61626c653a2063616c6c6572206973206e6f7420746865206f776e6572600082015250565b60006128bb602083611dbe565b91506128c682612885565b602082019050919050565b600060208201905081810360008301526128ea816128ae565b905091905056fea26469706673582212200307ce223108d35df3ad29100d5d4815f6f88b823efdeb5e8dbce670900a96ac64736f6c634300080d0033",
  "immutableReferences": {},
  "source": "// SPDX-License-Identifier: MIT\n\npragma solidity 0.8.13;\nimport \"../node_modules/@openzeppelin/contracts/access/Ownable.sol\";\n\n\ncontract Voting is Ownable {\n\n    uint public winningProposalID;\n    \n    struct Voter {\n        bool isRegistered;\n        bool hasVoted;\n        uint votedProposalId;\n    }\n\n    struct Proposal {\n        string description;\n        uint voteCount;\n    }\n\n    enum  WorkflowStatus {\n        RegisteringVoters,\n        ProposalsRegistrationStarted,\n        ProposalsRegistrationEnded,\n        VotingSessionStarted,\n        VotingSessionEnded,\n        VotesTallied\n    }\n\n    WorkflowStatus public workflowStatus;\n    Proposal[] proposalsArray;\n    mapping (address => Voter) voters;\n    address[] addresses; // Noouveau tableau pour pouvoir reset les voters a la fin\n\n    // Ajout de timestamps dans les events pour pouvoir les filtrer en fonction du dernier reset cot web3\n    event VoterRegistered(uint256 timestamp, address voterAddress); \n    event WorkflowStatusChange(uint256 timestamp, WorkflowStatus previousStatus, WorkflowStatus newStatus);\n    event ProposalRegistered(uint256 timestamp, uint proposalId);\n    event Voted(uint256 timestamp, address voter, uint proposalId);\n    event Reset(uint256 timestamp);\n    \n    modifier onlyVoters() {\n        require(voters[msg.sender].isRegistered, \"You're not a voter\");\n        _;\n    }\n    // Nouveau modifier pour permettre au Owner d'accder au getOneProposal et au getVoter\n    modifier onlyRegistered() {\n        require(owner() == msg.sender || voters[msg.sender].isRegistered, \"You're not registered\");\n        _;\n    }\n\n    // Modifier pour avoir maximum 100 voters et protger d'une attaque de Reentrency\n    modifier ifNotFull() {\n        require(addresses.length < 101, \"Max 100 voters\");\n        _;\n    }\n    \n    // on peut faire un modifier pour les tats\n\n    // ::::::::::::: GETTERS ::::::::::::: //\n\n    function getVoter(address _addr) external onlyRegistered view returns (Voter memory) {\n        return voters[_addr];\n    }\n    \n    function getOneProposal(uint _id) external onlyRegistered view returns (Proposal memory) {\n        return proposalsArray[_id];\n    }\n\n \n    // ::::::::::::: REGISTRATION ::::::::::::: // \n\n    function addVoter(address _addr) external onlyOwner ifNotFull {\n        require(workflowStatus == WorkflowStatus.RegisteringVoters, 'Voters registration is not open yet');\n        require(voters[_addr].isRegistered != true, 'Already registered');\n    \n        voters[_addr].isRegistered = true;\n        addresses.push(_addr);\n        emit VoterRegistered(block.timestamp, _addr);\n    }\n \n\n    // ::::::::::::: PROPOSAL ::::::::::::: // \n\n    function addProposal(string calldata _desc) external onlyVoters {\n        require(workflowStatus == WorkflowStatus.ProposalsRegistrationStarted, 'Proposals are not allowed yet');\n        require(keccak256(abi.encode(_desc)) != keccak256(abi.encode(\"\")), 'Vous ne pouvez pas ne rien proposer'); // facultatif\n        // voir que desc est different des autres\n\n        Proposal memory proposal;\n        proposal.description = _desc;\n        proposalsArray.push(proposal);\n        emit ProposalRegistered(block.timestamp, proposalsArray.length-1);\n    }\n\n    // ::::::::::::: VOTE ::::::::::::: //\n\n    function setVote( uint _id) external onlyVoters {\n        require(workflowStatus == WorkflowStatus.VotingSessionStarted, 'Voting session havent started yet');\n        require(voters[msg.sender].hasVoted != true, 'You have already voted');\n        require(_id < proposalsArray.length, 'Proposal not found'); // pas oblig, et pas besoin du >0 car uint\n\n        voters[msg.sender].votedProposalId = _id;\n        voters[msg.sender].hasVoted = true;\n        proposalsArray[_id].voteCount++;\n        // Fix security issue (Reentrency Attack)\n        if (proposalsArray[_id].voteCount > proposalsArray[winningProposalID].voteCount) {\n            winningProposalID = _id;\n        }\n\n        emit Voted(block.timestamp, msg.sender, _id);\n    }\n\n    // ::::::::::::: STATE ::::::::::::: //\n\n\n    function startProposalsRegistering() external onlyOwner {\n        require(workflowStatus == WorkflowStatus.RegisteringVoters, 'Registering proposals cant be started now');\n        workflowStatus = WorkflowStatus.ProposalsRegistrationStarted;\n        \n        Proposal memory proposal;\n        proposal.description = \"GENESIS\";\n        proposalsArray.push(proposal);\n        \n        emit WorkflowStatusChange(block.timestamp, WorkflowStatus.RegisteringVoters, WorkflowStatus.ProposalsRegistrationStarted);\n    }\n\n    function endProposalsRegistering() external onlyOwner {\n        require(workflowStatus == WorkflowStatus.ProposalsRegistrationStarted, 'Registering proposals havent started yet');\n        workflowStatus = WorkflowStatus.ProposalsRegistrationEnded;\n        emit WorkflowStatusChange(block.timestamp, WorkflowStatus.ProposalsRegistrationStarted, WorkflowStatus.ProposalsRegistrationEnded);\n    }\n\n    function startVotingSession() external onlyOwner {\n        require(workflowStatus == WorkflowStatus.ProposalsRegistrationEnded, 'Registering proposals phase is not finished');\n        workflowStatus = WorkflowStatus.VotingSessionStarted;\n        emit WorkflowStatusChange(block.timestamp, WorkflowStatus.ProposalsRegistrationEnded, WorkflowStatus.VotingSessionStarted);\n    }\n\n    function endVotingSession() external onlyOwner {\n        require(workflowStatus == WorkflowStatus.VotingSessionStarted, 'Voting session havent started yet');\n        workflowStatus = WorkflowStatus.VotingSessionEnded;\n        emit WorkflowStatusChange(block.timestamp, WorkflowStatus.VotingSessionStarted, WorkflowStatus.VotingSessionEnded);\n    }\n\n\n   function tallyVotes() external onlyOwner {\n       require(workflowStatus == WorkflowStatus.VotingSessionEnded, \"Current status is not voting session ended\");\n\n       workflowStatus = WorkflowStatus.VotesTallied;\n       emit WorkflowStatusChange(block.timestamp, WorkflowStatus.VotingSessionEnded, WorkflowStatus.VotesTallied);\n    }\n\n    // Possibilit de reset le voting a la fin\n    function reset() external onlyOwner {\n        require(workflowStatus == WorkflowStatus.VotesTallied, \"Current status is not votes tailled\");\n\n        workflowStatus = WorkflowStatus.RegisteringVoters;\n        delete proposalsArray;\n        uint length = addresses.length;\n        for (uint i = 0; i < length; ++i) {\n            voters[ addresses[i] ].isRegistered = false;\n            voters[ addresses[i] ].hasVoted = false;\n            voters[ addresses[i] ].votedProposalId = 0;\n        }\n        delete addresses;\n        emit WorkflowStatusChange(block.timestamp, WorkflowStatus.VotesTallied, WorkflowStatus.RegisteringVoters);\n        emit Reset(block.timestamp);\n    }\n}",
  "sourcePath": "/Users/charlescoulais/dev/alyra/projets/project_3/truffle/contracts/voting.sol",
  "compiler": {
    "name": "solc",
    "version": "0.8.13+commit.abaa5c0e.Emscripten.clang"
  },
  "schemaVersion": "3.4.10",
  "updatedAt": "2022-11-23T16:40:35.291Z",
  "networkType": "ethereum",
  "devdoc": {
    "kind": "dev",
    "methods": {
      "owner()": {
        "details": "Returns the address of the current owner."
      },
      "renounceOwnership()": {
        "details": "Leaves the contract without owner. It will not be possible to call `onlyOwner` functions anymore. Can only be called by the current owner. NOTE: Renouncing ownership will leave the contract without an owner, thereby removing any functionality that is only available to the owner."
      },
      "transferOwnership(address)": {
        "details": "Transfers ownership of the contract to a new account (`newOwner`). Can only be called by the current owner."
      }
    },
    "version": 1
  },
  "userdoc": {
    "kind": "user",
    "methods": {},
    "version": 1
  }
}